:020000040800F2
:10000000904900200D030008491100084B11000819
:100010004F1100085311000857110008000000009C
:100020000000000000000000000000005B1100085C
:100030005D110008000000005F1100086111000858
:1000400027030008270300082703000827030008E8
:1000500027030008270300082703000827030008D8
:1000600027030008270300082703000827030008C8
:1000700027030008270300082703000827030008B8
:1000800027030008270300082703000827030008A8
:100090002703000827030008270300082703000898
:1000A0002703000827030008270300082703000888
:1000B0002703000827030008270300082703000878
:1000C0002703000827030008270300082703000868
:1000D0002703000827030008270300082703000858
:1000E0002703000827030008270300082703000848
:1000F0002703000827030008270300082703000838
:100100002703000827030008270300082703000827
:100110002703000827030008270300082703000817
:100120002703000827030008270300082703000807
:10013000DFF80CD003F038F900480047F128000838
:100140009049002000210020674A126842F4803262
:10015000654B1A6000BF644A126802F40030491C03
:1001600010B9B1F5A06FF6D15F4A126812F4003FE2
:1001700001D0012000E00020012842D15B4A126832
:1001800042F01002594B1A601A46126822F003021C
:100190001A601A46126842F002021A60524A526805
:1001A000514B5A601A4652685A601A46526842F4D5
:1001B00080625A601A46526822F47C125A601A46CB
:1001C000526842F4E8125A601A46126842F080728D
:1001D0001A6000BF444A126812F0007FFAD0424A07
:1001E000526822F00302404B5A601A46526842F0AD
:1001F00002025A6000BF3C4A526802F00C02082A10
:10020000F9D1704710B5FFF79DFF10BD10B5364806
:10021000006840F0010034490860084640683449ED
:1002200008403149486008460068324908402E4974
:1002300008600846006820F480200860084640688E
:1002400020F4FE0048604FF41F008860FFF7DAFFDB
:100250004FF000602849086010BD10B50021002053
:100260000022214B5B6803F00C0121B1042906D068
:10027000082928D107E0214B214C236027E01F4BA0
:100280001F4C236023E0184B5B6803F47010164B7F
:100290005B6803F48032022303EB904022B9194BD0
:1002A0004343174C23600DE00F4B5B6813F4003F92
:1002B00004D0144B4343124C236003E00F4B4343E1
:1002C0000F4C236003E00D4B0D4C236000BF00BFBB
:1002D000054B5B68C3F303130B4CE15C084B1B68D5
:1002E000CB40074C236010BD0010024000200240AC
:1002F0000000FFF8FFFFF6FE08ED00E000127A00B4
:100300000000002000093D0004000020064880474E
:1003100006480047FEE7FEE7FEE7FEE7FEE7FEE7EA
:10032000FEE7FEE7FEE7FEE70D02000831010008E8
:1003300010B50446CA48844208D10121042000F0C7
:1003400024FB0021042000F020FB46E0C548844245
:1003500008D10121082000F018FB0021082000F03E
:1003600014FB3AE0C048844208D10121102000F07B
:100370000CFB0021102000F008FB2EE0BB4884425B
:1003800008D10121202000F000FB0021202000F0F6
:10039000FCFA22E0B648844208D10121402000F056
:1003A000F4FA0021402000F0F0FA16E0B14884424F
:1003B00008D10121802000F0E8FA0021802000F01F
:1003C000E4FA0AE0AC48844207D10121801500F02C
:1003D000DCFA0021A01500F0D8FA10BD10B50121FB
:1003E000084600F0D2FA0021012000F0CEFA10BD3C
:1003F0002DE9F041024600250026002000230024BC
:10040000002791F803C00CF00F0591F803C01CF011
:10041000100F03D091F802C04CEA0505B1F800C0F6
:100420001CF0FF0F31D0146800202BE04FF0010CBE
:100430000CFA00F3B1F800C00CEA03069E4220D18A
:1004400083004FF00F0C0CFA03F7BC4305FA03FCD2
:100450004CEA040491F803C0BCF1280F06D14FF018
:10046000010C0CFA00FCC2F814C00AE091F803C0B9
:10047000BCF1480F05D14FF0010C0CFA00FCC2F89A
:1004800010C0401C0828D1D31460B1F800C0BCF1E2
:10049000FF0F34DD546800202EE000F1080C4FF00F
:1004A000010808FA0CF3B1F800C00CEA03069E42FA
:1004B00021D183004FF00F0C0CFA03F7BC4305FA6F
:1004C00003FC4CEA040491F803C0BCF1280F05D1E9
:1004D00000F1080C08FA0CF8C2F8148091F803C077
:1004E000BCF1480F07D100F1080C4FF0010808FAE1
:1004F0000CF8C2F81080401C0828CED35460BDE828
:10050000F0814FF6FF710180022181700421C170DA
:1005100070470246002093680B4201D0012000E0A2
:10052000002070470146886880B27047024600206C
:10053000D3680B4201D0012000E000207047014643
:10054000C86880B2704701617047416170470AB165
:10055000016100E041617047C16070474FF4803233
:100560000A438261816182618269826970470246C1
:100570000020424B18684FF68073184040EA021082
:1005800008433E4B186070473D49C8617047F0B55D
:100590000A46002300240021002500F00046B6F1A1
:1005A000004F02D1354EF16901E0344E7168C0F35D
:1005B000034583B200F44016B6F5401F08D121F080
:1005C00070612E4E766826F070662C4F7E6012E0C9
:1005D00000F48016B6F5801F06D1032606FA05F44E
:1005E000A14341F0706106E0460D360103FA06F6BC
:1005F000B14341F0706122B1460D360103FA06F6AF
:10060000314300F00046B6F1004F02D11B4EF161BC
:1006100001E01A4E7160F0BD30B500228B071C0F4F
:100620000F2303FA04F2154B08338C1053F82430CF
:100630009343124C08348D1044F8253023468C1017
:1006400053F824308C07240F00FA04F423430B4C96
:1006500008348D1044F8253030BD0A4908607047D1
:1006600000080140000C014000100140001401404E
:1006700000180140001C0140002001400000014022
:1006800000002042DC002042DB48006840F001000E
:10069000D949086008464068D8490840D6494860AA
:1006A00008460068D6490840D349086008460068F3
:1006B00020F4802008600846406820F4FE0048606E
:1006C0004FF41F0088607047CB49096821F48031DE
:1006D000C94A11601146096821F480211160B0F502
:1006E000803F03D0B0F5802F0ED106E0C2490968E3
:1006F00041F48031C04A116007E0BF49096841F404
:10070000A021BD4A116000E000BF00BF704710B5D6
:1007100001460022002300204A11012A02D1B64CD2
:10072000236806E0022A02D1B34C236A01E0B24CEE
:10073000636A01F01F02012494401C4201D0012091
:1007400000E0002010BD70B500240025002600BF89
:100750003120FFF7DCFF0646641CB4F5A06F01D022
:10076000002EF5D03120FFF7D2FF08B1012500E0BF
:100770000025284670BD014600209F4A106820F0E1
:10078000F80040EAC100106070479E490860704759
:1007900002460020984B586820F47C1042EA01037E
:1007A0001843954B58607047964908667047014654
:1007B0000020914A506820F00300084350607047C1
:1007C0008D48406800F00C007047014600208A4ABE
:1007D000506820F0F0000843506070470146002048
:1007E000854A506820F4E060084350607047014635
:1007F0000020814A506820F4605040EAC1005060F7
:10080000704729B17C4A527A02437B4B5A7206E008
:10081000794A527AC343DBB21A40774B5A72704717
:1008200079490860704701460020734A506820F4F7
:1008300040400843506070470021744A11706E4A6E
:1008400082F82010012802D0042808D103E00121F9
:100850006E4A117004E005216C4A117000E000BF7F
:1008600000BF70476A49086070476349096A0143DD
:10087000614A1162704767490860704730B50021CE
:100880000022002400235C4D6D6805F00C0121B1AD
:10089000042905D0082923D105E05F4D056022E039
:1008A0005D4D05601FE0544D6D6805F47012524DAA
:1008B0006D6805F48034022505EB92421CB9574D52
:1008C000554305600BE04C4D6D6815F4003F03D0B7
:1008D000524D5543056002E04F4D5543056002E01F
:1008E0004D4D056000BF00BF434D6D6805F0F00140
:1008F00009094B4D6B5C0568DD4045603E4D6D68F8
:1009000005F4E061090A464D6B5C4568DD40856091
:10091000394D6D6805F46051C90A414D6B5C4568FD
:10092000DD40C560344D6D6805F44041890B3D4D97
:100930006B5CC568B5FBF3F5056130BD29B12E4A86
:10094000526902432C4B5A6104E02B4A526982439C
:10095000294B5A61704729B1274A92690243264BB5
:100960009A6104E0244A92698243234B9A6170475A
:1009700029B1214AD26902431F4BDA6104E01E4AC1
:10098000D26982431C4BDA61704729B11A4AD26896
:100990000243194BDA6004E0174AD2688243164BCF
:1009A000DA60704729B1144A12690243124B1A6186
:1009B00004E0114A126982430F4B1A6170471A49C9
:1009C000086070470F49C86470470B49C871704789
:1009D0000948406A40F08070074948627047014604
:1009E0000020054A92680A4201D0012000E0002060
:1009F0007047014988727047001002400000FFF8FC
:100A0000FFFFF6FE00004242D800424220100240A2
:100A1000800442423C04424200127A0000093D0038
:100A200014000020240000204004424210B5044677
:100A3000BF48844208D101218014FFF7A6FF00219E
:100A4000A014FFF7A2FF16E0BA48844208D10121A2
:100A50000014FFF7A7FF00212014FFF7A3FF0AE00F
:100A6000B548844207D10121C013FFF79BFF002145
:100A7000E013FFF797FF10BD10B50022028802F4C3
:100A800041520B884C8823438C882343CC882343D2
:100A90000C8923434C8923438C892343CC892343EA
:100AA0001A430280838B4FF2FF74234083830B8AA7
:100AB000038210BD2DE9F04F85B005460C464FF07E
:100AC000000902274FF000084FF0010B0026B24644
:100AD000A88B4FF240010840A88302202884B5F873
:100AE0001C90A068022801D100BF36E0A08810B990
:100AF0004FF0010B01E04FF0020B8E48854200D110
:100B000000E000BF6846FFF7B9FEDDF800A0E0880E
:100B1000B0F5007F0AD14FEA1A2000EB80004000B8
:100B2000A168B0FBF1F0401D86B20BE04FEA4B101C
:100B3000BAFBF0F000EB80004000A168B0FBF1F0E0
:100B4000401D86B20A20B6FBF0F606F00108A6EBBF
:100B50000800C0F34F074FEA0828022F01DBFF2FE0
:100B600002DD02274FF00008E08840EA0800384321
:100B70002884A088A1890843618808432188084304
:100B800040F4006040EA0909A5F81C9005B0BDE8F2
:100B9000F08F0021018041808180C18001814181ED
:100BA0008181C1810721018270470021018041803C
:100BB0008180C1800221816000218181704721B143
:100BC000028842F04002028004E002884FF6BF73C0
:100BD0001A400280704721B1828B42F48062828386
:100BE00004E0828B4FF6FF331A408283704770B562
:100BF000002400230C110125A540ABB21AB1858851
:100C00001D43858004E08588DE43B6B2354085808B
:100C100070BD10B51AB183880B43838004E08388CC
:100C2000CC43A4B22340838010BD8181704701462C
:100C300088897047A1F57E42FF3A04D0028842F4C9
:100C40008072028004E002884FF6FF631A4002803F
:100C5000704721B1828842F00402828004E08288D9
:100C60004FF6FB731A408280704702884FF2FF7381
:100C70001A40028002880A4302807047018841F4CA
:100C800080510180704721B1028842F400520280F5
:100C900004E002884DF6FF731A4002807047024656
:100CA0000020012901D0108B00E0908A7047014696
:100CB000088A7047B1F5804F04D1028842F480421F
:100CC000028004E002884BF6FF731A4002807047EE
:100CD0000246002013890B4201D0012000E00020D1
:100CE0007047CA4302817047F0B5024600200024D5
:100CF0000023002501F00F070126BE40B4B20B11FE
:100D000001269E40B3B2968806EA0305168926425C
:100D100002D00DB1012000E00020F0BD10B500228E
:100D200001F00F040123A3409AB2D343038110BD05
:100D30000030014000380040003C004010B504463F
:100D4000FC48844209D101218803FFF71EFE0021DF
:100D50004FF48040FFF719FE32E0F748844209D192
:100D600001214804FFF71EFE00214FF40030FFF779
:100D700019FE25E0F148844209D101218804FFF7DA
:100D800011FE00214FF48020FFF70CFE18E0EC4824
:100D9000844209D10121C804FFF704FE00214FF469
:100DA0000020FFF7FFFD0BE0E648844208D1012157
:100DB0000805FFF7F7FD00214FF48010FFF7F2FD63
:100DC00010BD2DE9F04786B005460E460024A24628
:100DD00000BFA1460027B08900B100BF2F462C8A72
:100DE0004CF6FF700440F08804432C82AC894EF628
:100DF000F3100440B08831890843718908430443E3
:100E0000AC81AC8A4FF6FF400440B0890443AC8209
:100E100001A8FFF733FDC748874202D1DDF810A0D3
:100E200001E0DDF80CA0A88910F4004F08D00AEB0F
:100E3000CA0000EB0A1031684900B0FBF1F807E086
:100E40000AEBCA0000EB0A1031688900B0FBF1F828
:100E50006420B8FBF0F004012009642101FB108933
:100E6000A88910F4004F08D0322000EBC900B0FB75
:100E7000F1F000F00700044308E0322000EB091015
:100E80006421B0FBF1F000F00F0004432C8106B0A8
:100E9000BDE8F0874FF41651016000218180C180C8
:100EA00001810C21418100218181704710B50246EA
:100EB0000020108A4FF2FF0318400B884C88234310
:100EC0008C882343CC8823431843108210BD002113
:100ED000018041808180C180704721B1828942F4C4
:100EE0000052828104E082894DF6FF731A408281AC
:100EF0007047F0B503460024002600250020A1F528
:100F000010676A3F00D100BF1846C1F3421401F0D8
:100F10001F06012707FA06F5012C01D10C3004E069
:100F2000022C01D1103000E014301AB107682F43B1
:100F3000076002E00768AF430760F0BD10B51AB163
:100F4000838A0B43838204E0838ACC43A4B2234088
:100F5000838210BD028A4FF6F0731A400282028A21
:100F60000A430282704782894FF2FF731A408281DE
:100F700082890A438281704721B1828942F002024C
:100F8000828104E082894FF6FD731A4082817047A6
:100F9000028A4FF6DF731A400282028A0A430282F3
:100FA000704721B1028A42F48042028204E0028A40
:100FB0004BF6FF731A4002827047C1F30802828029
:100FC000704701468888C0F308007047818941F066
:100FD000010181817047028BD2B20283028B42EA07
:100FE000012202837047028B02F47F420283028B4C
:100FF0000A430283704721B1828A42F02002828232
:1010000004E0828A4FF6DF731A408282704721B172
:10101000828A42F01002828204E0828A4FF6EF73E5
:101020001A408282704721B1828A42F0080282828D
:1010300004E0828A4FF6F7731A408282704721B12A
:10104000828942F40042828103E08289C2F30E0267
:101050008281704721B1828A42F40062828204E078
:10106000828A4FF2FF731A4082827047828A4FF65B
:10107000FB731A408282828A0A438282704721B1BE
:10108000828A42F00202828204E0828A4FF6FD7375
:101090001A408282704702460020B1F5007F00D1DD
:1010A00000BF13880B4201D0012000E000207047F0
:1010B00001F40072B2F5007F00D100BFCA43028084
:1010C000704770B502460024002300250020A1F5DA
:1010D00010666A3E00D100BFC1F3421501F01F0344
:1010E000012606FA03F3012D02D19689334006E06A
:1010F000022D02D1168A334001E0968A33400C1249
:10110000012606FA04F41688344013B10CB101200C
:1011100000E0002070BD10B500220023A1F510648E
:101120006A3C00D100BF0A1201249440A3B2DC4300
:10113000048010BD003801400044004000480040D9
:10114000004C004000500040704700BFFEE700BF69
:10115000FEE700BFFEE700BFFEE77047704770473D
:101160007047000000E0401E0028FCD1704708B521
:1011700001210846FFF7EFFB01213820FFF7EBFBC9
:101180000121FD48FFF703FA03208DF8020010202B
:101190008DF803004FF6FF70ADF800006946F74880
:1011A000FFF726F92020ADF800006946F448FFF764
:1011B0001FF94020ADF800006946F148FFF718F923
:1011C0001020ADF800006946ED48FFF711F98020C6
:1011D000ADF800006946EA48FFF70AF90420ADF8C7
:1011E00000006946E748FFF703F908BD10B54FF660
:1011F000FF70FFF7B7FFCF2002F01EF9002002F0CA
:1012000031F9812002F02EF9302002F02BF94FF64F
:10121000FF70FFF7A7FFED2002F00EF9642002F047
:1012200021F9032002F01EF9122002F01BF981209F
:1012300002F018F94FF6FF70FFF794FFE82002F074
:10124000FBF8852002F00EF9102002F00BF978204F
:1012500002F008F94FF6FF70FFF784FFCB2002F091
:10126000EBF8392002F0FEF82C2002F0FBF8002009
:1012700002F0F8F8342002F0F5F8022002F0F2F85B
:101280004FF6FF70FFF76EFFF72002F0D5F8202031
:1012900002F0E8F84FF6FF70FFF764FFEA2002F073
:1012A000CBF8002002F0DEF8002002F0DBF84FF669
:1012B000FF70FFF757FFB12002F0BEF8002002F0E8
:1012C000D1F81B2002F0CEF84FF6FF70FFF74AFF6F
:1012D000B62002F0B1F80A2002F0C4F8A22002F011
:1012E000C1F84FF6FF70FFF73DFFC02002F0A4F8F1
:1012F000352002F0B7F84FF6FF70FFF733FFC1203B
:1013000002F09AF8112002F0ADF8C52002F094F82E
:10131000452002F0A7F8452002F0A4F8C72002F00B
:101320008BF8A22002F09EF8F22002F085F800204F
:1013300002F098F8262002F07FF8012002F092F8DF
:101340004FF6FF70FFF70EFFE02002F075F80F2058
:1013500002F088F8262002F085F8242002F082F8B6
:101360000B2002F07FF80E2002F07CF8092002F03A
:1013700079F8542002F076F8A82002F073F846209D
:1013800002F070F80C2002F06DF8172002F06AF8F5
:10139000092002F067F80F2002F064F8072002F03D
:1013A00061F8002002F05EF8E12002F045F800202C
:1013B00002F058F8192002F055F81B2002F052F8FC
:1013C000042002F04FF8102002F04CF8072002F041
:1013D00049F82A2002F046F8472002F043F8392065
:1013E00002F040F8032002F03DF8062002F03AF83F
:1013F000062002F037F8302002F034F8382002F0EE
:1014000031F80F2002F02EF84FF6FF70FFF7AAFE1A
:10141000362002F011F8C82002F024F84FF6FF70D1
:10142000FFF7A0FE2A2002F007F8002002F01AF8C9
:10143000002002F017F8002002F014F8EF2002F06C
:1014400011F84FF6FF70FFF78DFE2B2001F0F4FF2F
:10145000002002F007F8002002F004F8012002F05A
:1014600001F83F2001F0FEFF4FF6FF70FFF77AFE14
:101470003A2001F0E1FF552001F0F4FF112001F0C6
:10148000DBFF4148FFF76EFE4FF6FF70FFF76AFE85
:10149000292001F0D1FF10BD10B50446072C00DD56
:1014A00010BD3A48047004EBD4714910B4EB41010B
:1014B00007D1F020364908804FF4A07035490880E4
:1014C00006E04FF4A07032490880F02031490880CE
:1014D000362001F0B1FF082141EA441001F0C2FFBB
:1014E0002A2001F0A9FF002001F0BCFF002001F03C
:1014F000B9FF27490988491EC1F3072001F0B2FF4F
:1015000023490988491EC8B201F0ACFF2B2001F025
:1015100093FF002001F0A6FF002001F0A3FF1D496A
:101520000988491EC1F3072001F09CFF1949098869
:10153000491EC8B201F096FF2C2001F07DFF00BFCC
:10154000AEE710B5044624B104210E48FEF7FDFFB6
:1015500003E004210B48FEF7F6FF10BD10B5FFF7BE
:1015600006FE0120FFF7EDFFFFF740FE0748007879
:10157000FFF792FF10BD000000023000000C014098
:101580000010014000140140FCBF02002C000020AC
:10159000280000202A0000202DE9F04104460D46D5
:1015A00016461F462A2001F047FF201201F05AFF7D
:1015B000E0B201F057FFA119491EC1F30F2001F05D
:1015C00051FFA119491EC8B201F04CFF2B2001F0B8
:1015D00033FF281201F046FFE8B201F043FFE9199A
:1015E000491EC1F30F2001F03DFFE919491EC8B2A1
:1015F00001F038FFBDE8F08170B504460D460123C7
:101600001A4629462046FFF7C7FF70BD70B504464D
:101610000D4600262C2001F00FFF00BF03E02846F6
:1016200001F020FF761CA642F9D370BD2DE9F041F0
:1016300006460F4614461D462B462246394630467E
:10164000FFF7AAFF04FB05F0FF490988FFF7DEFF5B
:10165000BDE8F08170B505460C46FC48008885421F
:101660000CDAFB480088844208DA21462846FFF756
:10167000C3FFF84801880120FFF7C8FF70BD70B5AF
:101680000024002500262E2001F0D6FE01F09EFE4B
:10169000044601F09BFE044601F098FE064601F068
:1016A00095FE0546E012C002A91240EA411040EA48
:1016B000E62070BD70B504460D4629462046FFF76A
:1016C0009BFFFFF7DCFF0646304670BD2DE9FF4F5C
:1016D00083B081464FF0000AD3460598A0EB090578
:1016E00004990698461ACDF8049004980090002DAD
:1016F00001DD012705E00DB9002702E04FF0FF37BB
:101700006D42002E02DD4FF0010806E016B94FF0E1
:10171000000802E04FF0FF387642B54201DD2C466A
:1017200000E034460020029019E0DDE90010FFF7E8
:1017300091FFAA44B344A24505DDAAEB040A01982F
:10174000384480B20190A34505DDABEB040B009853
:10175000404480B200900298401C80B20290611C0C
:1017600002988842E1DD07B0BDE8F08F2DE9F04135
:1017700004460D4616461F46DDF81880B8F1000FE6
:101780000CD03B46324629462046FFF705FF06FBB4
:1017900007F0B0490988FFF739FF27E0A019401E7C
:1017A00082B22B4629462046FFF790FFE819401EDB
:1017B00083B2A019401E82B2E819401E81B22046B1
:1017C000FFF784FFE819401E83B2224629462046CF
:1017D000FFF77CFFE919491E8BB2A119491E8AB295
:1017E000A119491E88B22946FFF770FFBDE8F081B4
:1017F0002DE9F05F05460E4691469B4600240FFA00
:1018000089F70320A0EB49000FFA80FA87E0BBF1CB
:10181000000F40D0A0463BE006EB080291B22A1927
:1018200090B2FFF717FF06EB080291B22A1B90B2A5
:10183000FFF710FF321991B2A5EB080290B2FFF743
:1018400009FF321B91B2A5EB080290B2FFF702FF2D
:10185000A6EB080291B22A1B90B2FFF7FBFEA6EBA3
:10186000080291B22A1990B2FFF7F4FE321B91B22E
:1018700005EB080290B2FFF7EDFE321991B205EBCD
:10188000080290B2FFF7E6FE08F101000FFA80F8B7
:10189000B845C1DD2FE0F21991B22A1990B2FFF7D5
:1018A000D9FEF21991B22A1B90B2FFF7D3FE32197A
:1018B00091B2EA1B90B2FFF7CDFE321B91B2EA1B48
:1018C00090B2FFF7C7FEF21B91B22A1B90B2FFF74E
:1018D000C1FEF21B91B22A1990B2FFF7BBFE321B78
:1018E00091B2EA1990B2FFF7B5FE321991B2EA1936
:1018F00090B2FFF7AFFE601C04B2BAF1000F05DA38
:10190000A000801D50440FFA80FA07E0E01B800021
:101910000A3050440FFA80FA781E07B200BFBC426A
:101920007FF775AFBDE8F09F2DE9F05F80468946EF
:101930001646A6F120001FFA80FA474909688988EF
:10194000454A1268D28801FB02F0C11700EB5171C1
:10195000C1F3C7074048006800680AFB070B3E4810
:101960000068C3883C480068828849464046FFF7C3
:1019700013FE2C2001F060FD002416E0002510E08D
:101980001BF8040080212941084204D03148008816
:1019900001F068FD03E02C48008801F063FD681C3D
:1019A000C5B2082DECDB601CC4B2BC42E6DBBDE86E
:1019B000F09F70B504460D46002624E030462649C7
:1019C00009688988084421490988884205DD00267C
:1019D00021480068C088204484B220461E49096816
:1019E000C98808441A490988884201DD0026002474
:1019F0002A7821463046FFF797FF6D1C164800688D
:101A00008088304486B228780028D7D170BD70B560
:101A100005460E4614462FE028460F490968898876
:101A200008440A490988884205DD00250A480068FB
:101A3000C088304486B2304607490968C9880844DE
:101A400003490988884209E0360000202800002068
:101A50002A000020340000203000002001DD002595
:101A60000026227831462846FFF75EFF641CF948BD
:101A700000688088284485B220780028CCD170BDC9
:101A800070B505460E46144624E03046F149096813
:101A9000C9880844F0490988884205DD0026ED48D8
:101AA00000688088284485B22846EA490968898800
:101AB0000844EA490988884201DD00250026227889
:101AC00031462846FFF730FF641CE2480068C088B2
:101AD000304486B220780028D7D170BD2DE9F0437C
:101AE00089B080468946174610231A464946404623
:101AF000FFF752FD2C2001F09FFC394601A800F0B1
:101B00006DFE00241FE001A810F8146036020120C9
:101B100000EB440001A9085C064300250FE04FF4E8
:101B200000402841304204D0CD48008801F09AFCA2
:101B300003E0CC48008801F095FC681CC5B2102D6C
:101B4000EDDB601CC4B2102CDDDB09B0BDE8F08316
:101B50002DE9F04105460F4614461FE02846103097
:101B6000BE490988884203DD002507F1100087B2CD
:101B700038461030B8490988884201DD0025002721
:101B80002688300200EB262086B2324639462846A7
:101B9000FFF7A4FF05F1100085B2A41C20780028EF
:101BA000DCD1BDE8F0812DE9F04105460C46002668
:101BB00048E020787E2825DC3046A64909688988D7
:101BC0000844A6490988884205DD0026A148006826
:101BD000C088284485B228469E490968C9880844B7
:101BE0009D490988884201DD002600252278294682
:101BF0003046FFF799FE974800688088304486B2E7
:101C0000641C1FE03046103094490988884203DD87
:101C1000002605F1100085B2284610308E4909884B
:101C2000884201DD002600252788380200EB2720A6
:101C300087B23A4629463046FFF750FF06F11000BA
:101C400086B2A41C20780028B3D1BDE8F0812DE92C
:101C5000F04105460E46144648E020787E2825DCF3
:101C600028467C490968898808447C490988884253
:101C700005DD002577480068C088304486B23046CC
:101C800074490968C988084473490988884201DD94
:101C900000250026227831462846FFF745FE6D488C
:101CA00000688088284485B2641C1FE028461030F4
:101CB0006A490988884203DD002506F1100086B2D2
:101CC0003046103064490988884201DD002500262D
:101CD0002788380200EB272087B23A46314628464B
:101CE000FFF7FCFE05F1100085B2A41C2078002847
:101CF000B3D1BDE8F0812DE9F04106460D4614460A
:101D00002CE02846103054490988884203DD00251C
:101D100006F1100086B230461030504909888842DA
:101D200001DD0026002520787E2809DC227829465E
:101D30003046FFF7F9FD641C05F1100085B20DE097
:101D40002788380200EB272087B23A4629463046DA
:101D5000FFF7C4FE05F1100085B2A41C207800280E
:101D6000CFD1BDE8F0812DE9FF4F82B00C461E4671
:101D70004FEA004A9AFBF2FA0AF1010ACDF804A0F0
:101D80004FEA044A9AFBF6FA0AF1010ACDF800A0DC
:101D90004FF00009202802DB06B0BDE8F08F00FB01
:101DA00004FABAF1000F00D1F6E700FB04FABAF525
:101DB000806F00DBF0E702FB06FABAF1000F00D1FA
:101DC000EAE702FB06FABAF5804F00DBE4E7264BB0
:101DD000DDF844A0BAF1000F29D100211DE0002553
:101DE00015E0DDF83CA01AF801A04FF0800B4BFA8B
:101DF00005FB1AEA0B0F02D04FF0010A01E04FF089
:101E0000000A03F801AB05F1010A1FFA8AF5082D53
:101E1000E7DB01F1010A1FFA8AF104FB00FA4FEA3D
:101E2000EA7B0AEB5B7BB1EBEB0FD8DB35E0002103
:101E30002AE0002522E0DDF83CA01AF801A04FF0CE
:101E4000800B4BFA05FB1AEA0B0F0FD04FF0010A7B
:101E50000EE00000300000202A00002028000020B2
:101E60003400002036000020E84000204FF0000A37
:101E700003F801AB05F1010A1FFA8AF5082DDADB38
:101E800001F1010A1FFA8AF104FB00FA4FEAEA7B2A
:101E90000AEB5B7BB1EBEB0FCBDBBB4BBB4F4FF0EC
:101EA000000C1AE04FF0000A4FEA194B00FB0B3E02
:101EB000D0460AE00EEB1A4B9BF800B007F808B0CA
:101EC000DDF804B0DA4408F101089045F2D3DDF8FA
:101ED00000B0D94417440CF1010CB445E2D3DFF84B
:101EE000ACA2CDF840A0DDF840A00AF1010ACDF87F
:101EF00040A000BF50E72DE9F05F81468A461446B6
:101F00001D46DDE90A6B0027B8462B46224651469E
:101F10004846FFF741FB2C2001F08EFA00BF14E089
:101F20004FF000080EE016F8011B594504D19848FF
:101F3000008801F097FA03E09648008801F092FAD1
:101F400008F10108A045EED37F1CAF42E8D3BDE8FD
:101F5000F09F2DE9FF4F8DB00646884614469946FE
:101F60001A9D274669E0304638448B4909888842E3
:101F700004DD002608EB09001FFA80F840464844BB
:101F800086490988884201DD0026B04628788028E5
:101F900025DD2746B5F800A04FEA0A2000EB2A20ED
:101FA0001FFA80FA514604A800F018FC012304A986
:101FB0000C9A8DE80E004B463A4610210846FFF772
:101FC000D2FE724A1B9BCDE900234B463A4641465E
:101FD0003046FFF790FFF01986B2AD1C2DE0204689
:101FE00004EBD4714F102878203800F0FF0B002349
:101FF0006B48C08800FB0BF06949898848430C9AFC
:10200000C117039000EB51706549096801EBE001CD
:102010008DE80E004B463A4618211020FFF7A3FE2C
:102020005A4A1B9BCDE900234B463A46414630466F
:10203000FFF761FFF01986B26D1C2878002892D155
:1020400011B0BDE8F08F2DE9FF4F8DB080460E46F0
:1020500014461F461A9D0C946BE0304620444E49AE
:102060000988884204DD002608EB04001FFA80F886
:102070004046384449490988884201DD0026B04677
:102080002878802825DD0C94B5F800904FEA0920C7
:1020900000EB29201FFA80F9494603A800F09EFBB7
:1020A000012303A90B9A8DE80E003B461021084638
:1020B0000C9AFFF758FE354A1B9BCDE900233B469F
:1020C000314640460C9AFFF716FFF01986B2AD1C58
:1020D0002FE0204604EBD47149100C912878203869
:1020E00000F0FF0A00232E48C08800FB0AF02C49AC
:1020F000898800FB01FB4FEAEB700BEB507028491D
:102100000B9A096801EBE0018DE80E003B461821AF
:1021100010200C9AFFF727FE1C4A1B9BCDE90023D9
:102120003B46314640460C9AFFF7E5FEF01986B271
:102130006D1C2878002890D111B0BDE8F08F1949A6
:1021400008607047174800687047124A1080104AAC
:10215000118070470F4A128802800D4A12880A8047
:1021600070470C490880704709490880704770B56E
:102170000446FFF7E7FFC5882B460748028821463B
:102180000020FFF753FA70BDE8400020E80000206F
:102190003600002034000020280000202A00002003
:1021A000440000203000002000B587B00121080362
:1021B000FEF7D1FB0121C420FEF7CDFB1020ADF8C6
:1021C000040003208DF8060010208DF8070001A9F7
:1021D000FF48FEF70DF92020ADF8040018208DF817
:1021E000070001A9FA48FEF703F94020ADF8040002
:1021F00001A9F748FEF7FCF88020ADF8040001A91A
:10220000F348FEF7F5F81021F148FEF79CF900209D
:10221000ADF808004FF48270ADF80A000020ADF868
:102220000C000220ADF80E000120ADF810004002B5
:10223000ADF812000820ADF814000020ADF816002B
:102240000720ADF8180002A9E248FEF715FC0121AD
:10225000E048FEF7B4FC07B000BD10B504462146C7
:10226000DDA001F015F9002010BD10B504464FF4B3
:102270008050E54908600AE0E3490868411EE24AE7
:10228000116020B90020FFF7E8FFC0B210BD0221A5
:10229000D048FEF71DFD0028EED02146CD48FEF7C0
:1022A000C4FC4FF48050D84908600AE0D649086859
:1022B000411ED54A116020B90120FFF7CEFFC0B200
:1022C000E4E70121C348FEF703FD0028EED0C14832
:1022D000FEF7ADFCC0B2D9E710B500241021BC4810
:1022E000FEF733F90520FFF7C0FF00BFFF20FFF71F
:1022F000BCFF044604F001000128F7D01021B448C7
:10230000FEF721F910BD10B51021B148FEF71DF9F7
:102310000620FFF7AAFF1021AD48FEF714F910BD03
:1023200010B50446FFF7EFFFFFF7D6FF1021A848CE
:10233000FEF70BF92020FFF798FFC4F30740FFF7E3
:1023400094FFC4F30720FFF790FFE0B2FFF78DFF83
:1023500010219F48FEF7F7F8FFF7BEFF10BD10B53C
:10236000FFF7D1FF10219A48FEF7EFF8C720FFF7DB
:102370007CFF10219648FEF7E6F8FFF7ADFF10BD91
:1023800070B505460C461646FFF7BDFF1021904874
:10239000FEF7DBF80220FFF768FFC4F30740FFF702
:1023A00064FFC4F30720FFF760FFE0B2FFF75DFFB3
:1023B000B6F5807F04DD4FF4807694A001F068F8D4
:1023C00003E02878FFF751FF6D1C3000A6F10101F2
:1023D0008EB2F6D110217E48FEF7B5F8FFF77CFFEC
:1023E00070BD2DE9F05F07460E4614464FF0000819
:1023F000C146C2460025AB4606F0FF0ACAF10000FE
:10240000C5B22046E11704EB1161C1F30728E117BB
:1024100004EB11610912A4EB012101F0FF09BAF1EB
:10242000000F20D1B8F1000F05D1224631463846C1
:10243000FFF7A6FF64E009E04FF4807231463846AA
:10244000FFF79EFF06F5807607F580775FEA0800C4
:10245000A8F1010101F0FF08EED14A4631463846A5
:10246000FFF78EFF4CE0B8F1000F18D1A94510DD41
:10247000A9EB050000F0FF0B2A4631463846FFF76E
:102480007FFF2E442F445A4631463846FFF778FFE7
:1024900036E0224631463846FFF772FF30E0601BD7
:1024A00084B22046E11704EB1161C1F30728E1175C
:1024B00004EB11610912A4EB012101F0FF092A4686
:1024C00031463846FFF75CFF2E442F4409E04FF4B5
:1024D000807231463846FFF753FF06F5807607F5E0
:1024E00080775FEA0800A8F1010101F0FF08EED152
:1024F000B9F1000F04D04A4631463846FFF740FF95
:10250000BDE8F09F70B505460C46164610213048D0
:10251000FEF71BF80320FFF7A8FEC4F30740FFF700
:10252000A4FEC4F30720FFF7A0FEE0B2FFF79DFE74
:1025300004E0FF20FFF799FE28706D1C3000A6F123
:1025400001018EB2F5D110212148FDF7FCFF70BDCD
:102550002DE9F041002400250026002710211C4809
:10256000FDF7F3FF9F20FFF780FEFF20FFF77DFEC2
:102570000546FF20FFF779FE0646FF20FFF775FEB0
:10258000074610211248FDF7DEFF280440EA062026
:1025900040EA07042046BDE8F08110B50024102170
:1025A0000B48FDF7D2FFAB20FFF75FFEFF20FFF7E0
:1025B0005CFEFF20FFF759FEFF20FFF756FEFF20CD
:1025C000FFF753FE044610210148FDF7BCFF37E03A
:1025D00000080140003001403C3C2D464C4153482E
:1025E0002D4552524F522D3E3E2053504920B5C8E2
:1025F000B4FDB3ACCAB1216572726F72436F64658A
:10260000203D2025640A0000380000203C3C2D4677
:102610004C4153482D4552524F522D3E3E2053506F
:10262000495F464C4153485F506167655772697412
:102630006520746F6F206C61726765210A0000006D
:10264000204610BD10B5044610213248FDF77DFF2D
:102650000320FFF70AFEC4F30740FFF706FEC4F3AA
:102660000720FFF702FEE0B2FFF7FFFD10BD10B537
:10267000FF20FFF7FAFD10BD10B504464FF480505F
:102680002549086009E024490868411E224A116072
:1026900018B90220FFF7E1FD10BD02211F48FEF727
:1026A00017FB0028EFD021461C48FEF7BEFA4FF476
:1026B00080501949086009E017490868411E164A08
:1026C000116018B90320FFF7C8FDE5E701211348A1
:1026D000FEF7FEFA0028EFD01048FEF7A8FADBE775
:1026E00010B510210B48FDF730FFB920FFF7BDFDF5
:1026F00010210848FDF727FF10BD10B5102105482F
:10270000FDF723FFAB20FFF7B0FD10210148FDF7D7
:102710001AFF10BD000801403800002000300140C1
:1027200000B585B001210420FEF715F901218803C9
:10273000FEF711F94FF40070ADF8100018208DF875
:10274000130003208DF8120004A92248FDF750FE63
:102750004FF48060ADF8100004208DF8130004A938
:102760001C48FDF745FE4FF4E13000900020ADF825
:102770000400ADF80600ADF80800ADF80C000C2020
:10278000ADF80A0069461448FEF71BFB0121124808
:10279000FEF7A3FB05B000BD70B504460D46E1B2DF
:1027A0000D48FEF70AFC00BF80210B48FEF773FCC2
:1027B0000028F9D0204670BD10B5044600BF202186
:1027C0000548FEF768FC0028F9D00348FEF7F9FB3E
:1027D00010BD000000080140003801402DE9F04123
:1027E00080460C461048007820B9FFF7DDFC012038
:1027F0000D4908702512E6B2A5F1A101C1EB011245
:1028000002EB411106EB4101A1390802C11700EBAF
:102810005171CF1007F5CB1120224046FFF772FE11
:102820000020BDE8F08100005400002008B501211F
:102830001020FEF790F84FF40050ADF8000048204B
:102840008DF8030001208DF802006946FF48FDF76E
:10285000CFFD08BD08B501210420FEF77CF801205A
:10286000ADF8000048208DF8030001208DF802002B
:102870006946F748FDF7BCFD08BD10B500240121ED
:10288000F348FDF746FE30B94FF40051EF48FDF72D
:1028900040FE00B901240121ED48FDF73AFE012870
:1028A00005D14103E948FDF734FE00B902240121B6
:1028B000E748FDF72EFE38B94FF40051E348FDF725
:1028C00028FE012800D103240121E148FDF721FE63
:1028D000012806D14103DD48FDF71BFE012800D188
:1028E0000324204610BD00E0401E0028FCD17047A4
:1028F0001CB5FEF733FE0620FEF7CEFD00214FF497
:102900007840FFF722FC4FF4A073F0220021084624
:10291000FEF78CFEFFF78AFFFFF79CFFCD48027899
:10292000CDA1CF4800F0C4FDFFF70CFC0024CC493A
:102930002046FFF738F90020CA490870CA490870D4
:1029400044E0C8490978C1F1640000F00FFD00F0CF
:1029500003FD172190FBF1F201FB1200C34908703F
:1029600008460178C248BF4A127800EBC202BE484E
:1029700003780078401CBC4C207042F8231000F013
:10298000EBFC0446C01704EB10700011A4EB001020
:10299000001DB849087008460078B549B14A127858
:1029A00001EBC201B04A127841F8220000F0D4FCD9
:1029B0000446C01704EB90708010A4EB8000AE4971
:1029C0000870A8480078401CA6490870A148007803
:1029D000C0F10700A34909788842B2DCFEE359E35D
:1029E0000020A0490870A049087041E09D4909787D
:1029F000C1F1640000F0BAFC9D489A49097800EBE7
:102A0000C102994801780078401C974B187052F821
:102A100021009649087096489249097800EBC10058
:102A20001946097850F821009249087093498D4A57
:102A3000127851F8221088B2FFF793FB01238D4AD8
:102A40000093127802EB82025100884A127802EB5E
:102A5000820250008A4A13788A4A1278FEF786FE6C
:102A60000020814908707F480078401C7D4908702B
:102A700078480078C0F107007A4909788842B5DCC7
:102A80004FF6FF70FFF76DFB012300937E4B7F4CE9
:102A9000246853F834309AB27D4B1B7803EB8303E0
:102AA00059007C4B1B7803EB830358000A23FEF785
:102AB0005DFEFFF7E2FE78490870084600780328BB
:102AC00043D10020FFF74DFB012300936E4B6F4C69
:102AD000246853F834309AB26D4B1B7803EB8303B0
:102AE00059006C4B1B7803EB830358000A23FEF755
:102AF0003DFE68480078401C664908704FF6FF703C
:102B0000FFF72FFB6348007800EB80003C2101EBCE
:102B10004000F02804D15F480078401E5D490870ED
:102B200001230093584B594C246853F834309AB21F
:102B3000574B1B7803EB83035900564B1B7803EB71
:102B4000830358000A23FEF711FE53480078022839
:102B500040D10020FFF705FB012300934A4B4B4C6B
:102B6000246853F834309AB2494B1B7803EB830343
:102B70005900484B1B7803EB830358000A23FEF7E8
:102B8000F5FD44480078401E424908704FF6FF703A
:102B9000FFF7E7FA3F48007800EB8000400004D1DF
:102BA0003C480078401C3B49087001230093364B99
:102BB000364C246853F834309AB2354B1B7803EB0B
:102BC00083035900334B1B7803EB830358000A231C
:102BD000FEF7CCFD00214FF6FF70FFF7B6FA1D4857
:102BE00002782EA11E4800F063FCFFF7ABFA002428
:102BF0001B492046FEF7D7FF4FF6FF70FFF7B1FAEB
:102C0000294A127802EB82025100284A127802EB1C
:102C1000820250000123264A126892B2FEF7E8FDB4
:102C200019491A4A126801EBC2014868FFF75BFEB6
:102C30000020FFF796FA1C4A127802EB820251003C
:102C40001A4A127802EB8202500033E00010014071
:102C50000008014078000020BBFDB7D63A2564008B
:102C6000E8440020CC000020CD000020D50000204A
:102C70004C450020D6000020D70000208C0000200A
:102C8000800000207F0000205800002084000020E9
:102C90007E0000207D000020D4000020BBFDB7D6C0
:102CA0003A256420000000007A000020790000200E
:102CB000D00000200123FF4A126892B2FEF798FD6F
:102CC0000020FD490870FD49087077E10020FC49AB
:102CD0000860FC48F849097800EBC100F749097819
:102CE00050F82100F8490978401A37D4F548F249DC
:102CF000097800EBC100F149097850F82100F24948
:102D00000978401A00EB8000EA490968B1EB400FEE
:102D100024DBEC48E849097800EBC101E74800787A
:102D2000401C51F82000E9490978884216DCE54842
:102D3000E149097800EBC101E0480078401C51F8F6
:102D40002000801CE1490978884207DBE0480078D0
:102D50004042DF4908700120D9490860D948D64966
:102D6000097800EBC100D549097850F82110D64800
:102D70000078A0F10200401A38D4D248CE49097830
:102D800000EBC100CD49097850F82110CE480078F9
:102D9000801E401A00EB8000C6490968B1EB400F65
:102DA00024DBC848C449097800EBC101C348007856
:102DB000401C51F82000C5490978884216DCC148FA
:102DC000BD49097800EBC101BC480078401C51F8AE
:102DD0002000801CBD490978884207DBBC48007888
:102DE0004042BB4908700120B5490860B548B24966
:102DF000097800EBC101B148007800F1010051F8F9
:102E00002000B2490978081A36D4AE48AA49097890
:102E100000EBC101A9480078401C51F82000AB49E3
:102E20000978081A00EB8000A2490968B1EB400F4D
:102E300022DBA448A049097800EBC1009F4909782A
:102E400050F82100A0490978884215DC9D489A492C
:102E5000097800EBC1009949097850F82100801CDD
:102E600099490978884207DB9A4800784042994995
:102E7000087001209249086092488F49097800EB58
:102E8000C1018E48007800F1010051F820108F48F0
:102E90000078A0F10200401A37D48A4886490978A0
:102EA00000EBC10185480078401C51F8201087488C
:102EB0000078801E401A00EB80007E490968B1EB63
:102EC000400F22DB7F487C49097800EBC1007B4939
:102ED000097850F821007D490978884215DC794845
:102EE0007549097800EBC1007449097850F8210050
:102EF000801C76490978884207DB76480078404292
:102F00007449087001206E4908606D480068012806
:102F10004FD14FF4A073F02200210846FEF786FB44
:102F200000206649087036E0664963480078401C16
:102F300001EBC0006149097850F8210061495E4AFF
:102F4000127801EBC2015D4A127841F822005D4916
:102F500059480078401C01EBC00158480078401CDB
:102F600051F820105748544A127800EBC2025348D7
:102F70000078401C42F8201057494F480078401C08
:102F800051F820004C4A127841F822004A48007853
:102F9000401C4949087051480078C0F10700464973
:102FA00009788842C0DC4D480078401C4B490870C5
:102FB0000DE041480078401C3F49087047480078C0
:102FC000C0F107003C49097888423FF77FAE00BF57
:102FD0003D480078182803DA3B480078002804DCD4
:102FE0003B48007840423A49087038480078002849
:102FF00011DD364800781D2812D139480078401E6E
:103000003149097888420BDC2F4801783448007830
:10301000C01D814204DC2F48007840422D490870D1
:103020002A4800781D2819D12E480078032808D195
:1030300027480078002804DD23480078401C2249F6
:10304000087028480078022808D121480078002814
:1030500004DD1D480078401C1B4908701A480078A0
:103060001B4909780844184908701848007819491C
:10307000097808441549087018480078072809D1CC
:103080001E2008704FF4A073F02200210846FEF7BE
:10309000CDFA04E00D4800781E287FF4A1AC00BFF3
:1030A00011480068012803D00C48007807281DD07B
:1030B000E9E00000D0000020CC000020CD0000207E
:1030C000DC0000204C450020790000207A00002020
:1030D0007B0000207C0000208C0000207800002075
:1030E0007D000020D400002084000020FFF72AF893
:1030F00000242046FFF73BF800214FF6FF70FFF752
:1031000024F87748FFF71BF8002376A2CDE90023C7
:1031100018231A4619460020FEF71BFFFFF7ADFBE8
:103120007749087008460078032800D1ABE074485E
:10313000007802287ED14FF4A073F02200210846C7
:10314000FEF774FA00206F4908706F4908706F49E4
:10315000087050E06C490978C1F1640000F006F98C
:1031600000F0FAF8172190FBF1F201FB1200684918
:1031700008700846027867486349097800EBC10186
:10318000624803780078401C604C207041F823208E
:1031900000F0E2F80446C01704EB10700011A4EB35
:1031A0000010001D5C490870084600785949564ACD
:1031B000127801EBC201554A127841F8220000F062
:1031C000CBF80446C01704EB90708010A4EB80008D
:1031D0005249087052484C49097800E051E050F8D3
:1031E00021105048484A127840F82210464800788A
:1031F000401C4549087043480078C0F10700424927
:1032000009788842A6DC0A20474908701D204749F2
:103210000870012046490870464908700A2046494E
:1032200008701E204549087045480068401C444904
:10323000086000E024E04FF6FF70FEF792FF0123E4
:103240000093404B1B689AB23C4B1B7803EB830303
:103250005900394B1B7803EB830358000F23FEF70B
:1032600085FA324A127802EB820251002E4A127815
:1032700002EB8202500001230A22FEF7B9FA00E0B5
:1032800000BFFFF7ACBB00BF4FF4A073F0220021DA
:103290000846FEF7CBF900214FF6FF70FEF755FF09
:1032A0000F48FEF74CFF002327A2CDE90023182387
:1032B0001A4619460020FEF74CFE12480278AFF27B
:1032C0006861244800F0F4F8FEF73CFFC08800EB8A
:1032D000800084B21F492046FEF765FC00201CBD1B
:1032E0003C000020B0B4524231BDF8C8EBCFC2D28E
:1032F000BBB9D82C524232BDE1CAF8D3CECFB70009
:10330000D400002078000020CC000020CD00002058
:10331000D50000204C450020D6000020D70000201A
:10332000AC0000208C000020790000207A000020F2
:103330007B0000207C0000207D0000207E0000201B
:103340008400002058000020D3CECFB7BDE1CAF8DA
:1033500000000000E84400200649074A086850437E
:1033600043F2390210440860400870470149086080
:1033700070470000E00000206D4EC64130B50B469E
:10338000014600202022012409E021FA02F59D4295
:1033900005D303FA02F5491B04FA02F52844151E69
:1033A000A2F10102F1DC30BD064C074D06E0E068F9
:1033B00040F0010394E8070098471034AC42F6D37C
:1033C000FCF7BAFEB8710008D87100084FF08831D8
:1033D000154A1160154AC2F8041C4FF00001144A46
:1033E00011604FF08001134A11614FF040011161EB
:1033F0004FF0100151614FF0200151610B49D1F89C
:10340000081C88B24FF0200111614FF010011161CA
:103410004FF03331044A116002F1040211604FF69B
:10342000FF71034A11607047000C01400000014029
:103430000C0C0140001001401021084A516180210C
:10344000516120211161064908604FF0400151612E
:1034500011614FF010011161704700000010014030
:103460000C0C01401021084A51618021116120217A
:103470001161064908604FF04001516111614FF040
:103480001001116170470000001001400C0C014058
:103490000FB4054B10B503A9044A029800F02CF8AC
:1034A00010BC5DF814FB000099270008E400002020
:1034B0000FB4084B10B504A902AA039800F01CF839
:1034C000044602A9002000F0C1F8204610BC5DF8B7
:1034D00014FB00004D36000802E008C8121F08C1A6
:1034E000002AFAD170477047002001E001C1121F85
:1034F000002AFBD1704700002DE9FF4F89B0044638
:103500009B46002597E0252832D10027641C4E4AAF
:10351000B84601212378203B01FA03F0104202D083
:103520000743641CF6E720782E2819D114F8010F00
:1035300047F004072A280ED06FF02F022078A0F160
:10354000300109290CD808EB880102EB410100EB9E
:103550000108641CF2E70A98641C50F8048B0A9076
:103560002078F0B3642808D0692806D075281FD0C9
:103570005A460B9990476D1C5CE00A994FF00A0976
:1035800001C90A91002804DAC0F100004FF02D01B2
:1035900002E0390504D52B218DF82010012104E02B
:1035A000F90701D02021F7E700218A4608AE0CE098
:1035B0000A994FF00A0901C90A91F5E74946FFF750
:1035C000DDFE01F1300106F8011D0028F6D1ADEB5A
:1035D000060000F12009780701D44FF0010800200F
:1035E00000E02CE041464A46C84500DD881A804686
:1035F000002706E008A85A46C05D0B9990476D1C4D
:103600007F1C5745F6DB04E030205A460B99904763
:103610006D1CB8F10001A8F10108F5DC05E016F811
:10362000010B5A460B9990476D1CB9F10001A9F1A5
:103630000109F4DC641C207800287FF464AF0DB02D
:103640002846BDE8F08F0000092801000A68531CD5
:103650000B601070704700000000000000000000C8
:1036600000000000000000000018181818181808C2
:10367000000818000000000000342424240000008A
:103680000000000000000000000016247F24242415
:103690007E2424000000000000083E6848681C16D4
:1036A00012127C10100000000061D29674081016EF
:1036B0002949C6000000000000003C646438724ADA
:1036C000CE467F0000000000001818181800000007
:1036D0000000000000000000000408181030303026
:1036E000301010180C04000000201008080C04040E
:1036F000040C08181020000000080A341C6A080096
:103700000000000000000000000000001818187FF2
:103710001818180000000000000000000000000061
:103720000018180830000000000000000000003CF5
:103730000000000000000000000000000000000089
:103740000018180000000000000206040C08081011
:10375000102020400000000000003C6642475B73E0
:1037600042663C0000000000000018784808080885
:1037700008087E000000000000003C460606040821
:1037800010207E000000000000007C0606043C02C1
:1037900002067C000000000000000C1C142464449D
:1037A000FF0404000000000000007E6060607E02F4
:1037B00002067C000000000000001E3060487642D7
:1037C00042623C000000000000007E0206040C087B
:1037D000181030000000000000003C6242361C66F9
:1037E00042423C000000000000003C664242661A73
:1037F000020478000000000000000000181800001B
:103800000018180000000000000000001818000058
:103810000018180830000000000000000418306094
:10382000100C0600000000000000000000007E00F8
:103830007E000000000000000000000030180406B8
:103840000C1020000000000000301C0606061810B6
:103850000010100000000000001C224141DDB5A551
:10386000A5AF94C0403C00000000181C3424266220
:103870007E43C1000000000000007C4642467C42BE
:1038800042427C000000000000001E2040404040FA
:1038900040603E000000000000007C46424343437D
:1038A000424678000000000000007E6060607E609C
:1038B00060607E000000000000007E6060607E604E
:1038C000606060000000000000001E604040CE42CA
:1038D00042623E00000000000000424242427E423E
:1038E000424242000000000000007E18181818181C
:1038F00018187E000000000000007C04040404048A
:103900000444780000000000000042444850705811
:103910004C44420000000000000020202020202015
:1039200020203E000000000000006266675F5B5BD5
:10393000C1C1C100000000000000626272525A4A18
:103940004E4646000000000000003C6243C3C3C373
:1039500043623C000000000000007C464242467882
:10396000404040000000000000003C6243C3C3C36D
:1039700043623C180F00000000007C6662667C6CAD
:10398000646662000000000000003E6040601C06AB
:1039900002027C000000000000007F1818181818B0
:1039A0001818180000000000000042424242424243
:1039B00042623C00000000000000C1434262262435
:1039C000341C1800000000000000C1C141495B5BCD
:1039D0007666660000000000000043663418181C7C
:1039E0002466C300000000000000C14266341C18B9
:1039F000181818000000000000007E02040C1810C7
:103A000020607E0000000000001C1010101010103C
:103A100010101010101C000000402020101008088A
:103A20000C04060200000000003C0C0C0C0C0C0CFA
:103A30000C0C0C0C0C3C00000000181C2462000054
:103A40000000000000000000000000000000000076
:103A50000000000000FF0000002010000000000037
:103A60000000000000000000000000003C06023ED4
:103A700042467A0000000000004040405C62424242
:103A800042427C0000000000000000001E20604058
:103A900060203E0000000000000202023E6242423E
:103AA00042663A0000000000000000003C62427ED6
:103AB00040603E0000000000000F1810107E101043
:103AC0001010100000000000000000003F66426679
:103AD00058403E43423C0000004040405C6242424D
:103AE0004242420000000000001818007808080850
:103AF00008087E000000000000040C007C040404A0
:103B0000040404040C78000000606060626C78704B
:103B100068646200000000000078080808080808CF
:103B200008087E000000000000000000764B4B4BB0
:103B30004B4B4B0000000000000000005C62424262
:103B40004242420000000000000000003C6242438C
:103B500042623C0000000000000000005C62424243
:103B600042427C4040400000000000003E62424271
:103B700042663A0202020000000000006E726360BA
:103B80006060600000000000000000003E20203C5B
:103B900006027C000000000000001010FE10101053
:103BA00010101E00000000000000000042424242CF
:103BB00042663A0000000000000000004342662414
:103BC000341818000000000000000000C1C15B5A5A
:103BD0005E666600000000000000000062261C18FF
:103BE0001C26620000000000000000004342662422
:103BF000341C181830E00000000000007E060C188D
:103C000010207E0000000000000E18101010307010
:103C100010101010180E00000808080808080808FE
:103C200008080808080800000030180808080C0EEA
:103C30000808080818300000000000000000714B60
:103C4000060000000000000000000000000000006E
:103C50000000000000000000000000000000000064
:103C60000000000000000000000000000000000054
:103C70000000000000000000000000000000000044
:103C8000038001800180018001800180018001802A
:103C9000018001800000000003C003C0000000009C
:103CA0000000000000000000000000000000000014
:103CB0000E700E700E700C3000000000000000004E
:103CC00000000000000000000000000000000000F4
:103CD00000000000000000000000000000000000E4
:103CE00000000618063806307FFE0C300C300C3011
:103CF0000C307FFE0C601C60186018600000000033
:103D0000000000000000000000000000000000C0F3
:103D100000C00FF83CC831C031803D801F8003F0E7
:103D200001F8031C030C031C3FF83FE007000600EA
:103D300000000000000000000000000000001C0067
:103D40007E0E630C631863307E6000C00180030048
:103D5000077C0EE61CC618C630C6607C000000005A
:103D60000000000000000000000000000000000053
:103D70000FE01CF0387038701C601FC00F003F8CC3
:103D800071CC60EC607C70383CFC1FCE0000000001
:103D90000000000000000000000000000000000023
:103DA00003C00180018001800000000000000000CD
:103DB0000000000000000000000000000000000003
:103DC00000000000000000000000000000000030C3
:103DD00000E001C0018003000700060006000E009D
:103DE0000E000E000E00060007000300038001C055
:103DF00000E00030000000000000000000000C00A7
:103E000006000380018001C000E0006000600070D7
:103E1000007000700060006000E000C0018003805E
:103E200006000C0000000000000000000000000080
:103E3000018011881DB803C007E03DBC01880180E6
:103E40000000000000000000000000000000000072
:103E50000000000000000000000000000000000062
:103E600000000000000001800180018001800180CD
:103E70007FFE0180018001800180000000000000C1
:103E80000000000000000000000000000000000032
:103E90000000000000000000000000000000000022
:103EA00000000000000003C003C001C001C0038087
:103EB0001F000000000000000000000000000000E3
:103EC00000000000000000000000000000000000F2
:103ED0000FF00000000000000000000000000000E3
:103EE00000000000000000000000000000000000D2
:103EF00000000000000000000000000000000000C2
:103F000000000000000003C003C003C00000000068
:103F100000000000000000000000000000000000A1
:103F2000001800380030006000E000C001C00180CF
:103F30000300030006000E000C001C0018003000F7
:103F40000000000000000000000000000000000071
:103F500001800FF01C38381C301C707E70EE738EA0
:103F60007E0E7C0C300C381C1E780FE00000000028
:103F70000000000000000000000000000000000041
:103F8000000007C01FC039C001C001C001C001C08E
:103F900001C001C001C001C03FFC3FFC00000000A7
:103FA0000000000000000000000000000000000011
:103FB00003801FF0183800380018003800380070EF
:103FC00001E0038007001C003FFC3FFC00000000F4
:103FD00000000000000000000000000000000000E1
:103FE00007801FF0003800380038003007E007F085
:103FF0000038001C001C001820F83FE00000000002
:1040000000000000000000000000000000000000B0
:10401000000000F001B0033007300E301C303830A3
:1040200070307FFE7FFE0030003000300000000066
:104030000000000000000000000000000000000080
:1040400000001FF818001800180018001FE000F802
:10405000001C001C001C003800F01FC00000000005
:104060000000000000000000000000000000000050
:10407000000003F80F001C001800300037F83C3C2B
:10408000300C300C380C381C1E380FF000000000CB
:104090000000000000000000000000000000000020
:1040A00000003FFC001C001800380070006000E0B9
:1040B00001C001800380070006000E000000000020
:1040C00000000000000000000000000000000000F0
:1040D00003C01FF8381C381C381C1C380FF007F0C0
:1040E0001C78381C300C381C3C380FF000000000E5
:1040F00000000000000000000000000000000000C0
:1041000003801FF03838301C701C700C380C1FFCFA
:104110000FCC001C001800701FE01F800000000082
:10412000000000000000000000000000000000008F
:10413000000000000000000003C003C00180000078
:1041400000000000000003C003C003C00000000026
:10415000000000000000000000000000000000005F
:10416000000000000000000003C003C00180000048
:1041700000000000000003C003C001C001C00380B4
:104180000F00000000000000000000000000000020
:10419000000000000000003800F001C007001E0011
:1041A00038000E00078001C00070003000000000E1
:1041B00000000000000000000000000000000000FF
:1041C0000000000000000000000000003FFC0000B4
:1041D00000003FFC3FFC0000000000000000000069
:1041E00000000000000000000000000000000000CF
:1041F0000000000000001C000F00038001E00078B8
:10420000001C007001E003800E000C0000000000A4
:10421000000000000000000000000000000000009E
:104220000FC000F0003800380038003803F0038079
:10423000030003000000000007800780000000006A
:10424000000000000000000000000000000000E08E
:1042500007F80C0C18063006700363F36633C67358
:10426000CC63CC62CC66CCE6C7FCE000600070009A
:1042700038101FF0000000000000000000000000E7
:10428000000003C007E006E00E700E700C301C3812
:1042900018183FFC3FFC700E600EE00700000000A5
:1042A000000000000000000000000000000000000E
:1042B00000003FF03838381C381C38383FF03FF8E1
:1042C000381C380C380C381C3FF83FE00000000068
:1042D00000000000000000000000000000000000DE
:1042E00000E007FC1E043800380030007000700049
:1042F0007000300038003C001F9C07FC00000000EC
:1043000000000000000000000000000000000000AD
:1043100000003FF03078301C300C300E300E300E84
:10432000300E300E301C30383FF03FC0000000002F
:10433000000000000000000000000000000000007D
:1043400000001FF818001800180018001FF81FF8C8
:1043500018001800180018001FF81FF800000000CF
:10436000000000000000000000000000000000004D
:1043700000001FF818001800180018001FF81FF898
:10438000180018001800180018001800000000009D
:10439000000000000000000000000000000000001D
:1043A00000F007FC1E04380030007000700070FC44
:1043B000700C700C300C380C1F1C07FC0000000047
:1043C00000000000000000000000000000000000ED
:1043D0000000300C300C300C300C300C3FFC3FFC3B
:1043E000300C300C300C300C300C300C0000000065
:1043F00000000000000000000000000000000000BD
:1044000000003FFC0180018001800180018001806B
:1044100001800180018001803FFC3FFC0000000022
:10442000000000000000000000000000000000008C
:1044300000001FF00030003000300030003000304D
:1044400000300030003000701DE01FC00000000090
:10445000000000000000000000000000000000005C
:104460000000381C387038E039C03B803F003F0006
:104470003B8039C038E038703838381C0000000004
:10448000000000000000000000000000000000002C
:1044900000001C001C001C001C001C001C001C0058
:1044A0001C001C001C001C001FFC1FFC0000000066
:1044B00000000000000000000000000000000000FC
:1044C0000000381C7C3C6C3E6E6E666E66CE63C629
:1044D0006386618660066006600660060000000074
:1044E00000000000000000000000000000000000CC
:1044F00000003C0C3C0C3E0C360C330C338C318CE5
:1045000031CC30EC306C307C303C301C0000000092
:10451000000000000000000000000000000000009B
:1045200001C00FF81C3C381C700E700E600660064F
:10453000700E700E700C381C1E780FE0000000002A
:10454000000000000000000000000000000000006B
:1045500000003FF0383C381C380C380C381C3878D8
:104560003FE0380038003800380038000000000014
:10457000000000000000000000000000000000003B
:1045800001C00FF81C3C381C700E700E60066006EF
:10459000700E700E700C381C1E780FE0018001C088
:1045A00000FF003C000000000000000000000000D0
:1045B00000003FF0383838183818383838F03FC025
:1045C00038E0387038383838381C380E00000000B1
:1045D00000000000000000000000000000000000DB
:1045E00001E00FF83800380038003C001F8003F06D
:1045F0000078001C001C001C38783FE00000000020
:1046000000000000000000000000000000000000AA
:1046100000007FFE01800180018001800180018017
:104620000180018001800180018001800000000084
:10463000000000000000000000000000000000007A
:104640000000300C300C300C300C300C300C300CC6
:10465000300C300C300C381C1C380FF000000000FF
:10466000000000000000000000000000000000004A
:104670000000E006700E700E381C381C1C181C3828
:104680000C300E70066007E003C003C0000000009D
:10469000000000000000000000000000000000001A
:1046A000000060066006600660066186638673C669
:1046B00073CE766C366C3C3C3C3C381C00000000F1
:1046C00000000000000000000000000000000000EA
:1046D0000000301C38181C380E7007E003C003C0FF
:1046E00007E00E701C381838381C700E00000000EF
:1046F00000000000000000000000000000000000BA
:104700000000700E700C381C1C380E70066007E03C
:1047100003C0018001800180018001800000000051
:104720000000000000000000000000000000000089
:1047300000003FFC001C0038007000E001C0038056
:1047400007000E000C0018003FFC3FFC00000000BA
:10475000000000000000000000000000000007F062
:1047600007F0060006000600060006000600060028
:104770000600060006000600060006000600060009
:10478000060007F00000000000000000000000002C
:1047900018001C000C0006000700030003800180C5
:1047A00001C000C000600070003000380018000C2C
:1047B00000000000000000000000000000000FE00A
:1047C0000FE000600060006000600060006000605A
:1047D00000600060006000600060006000600060D9
:1047E00000600FE00000000000000000000000007A
:1047F000000003C006C006600C301818301C000012
:1048000000000000000000000000000000000000A8
:104810000000000000000000000000000000000098
:104820000000000000000000000000000000000088
:104830000000000000000000000000000000000078
:104840000000FFFF0000000000000000000000006A
:104850001E000380000000000000000000000000B7
:104860000000000000000000000000000000000048
:104870000000000000000000000000000000000038
:1048800000000000000000001FF01038001C001C99
:104890000FFC1C1C381C381C3CFC1FDC00000000FA
:1048A0000000000000000000000000000000000008
:1048B00038003800380038003BF83E1C3C1C380CEF
:1048C000380C380C380C381C3C781FE00000000015
:1048D00000000000000000000000000000000000D8
:1048E000000000000000000007F80E001C00380067
:1048F0003800380038001C000F1807F800000000CE
:1049000000000000000000000000000000000000A7
:10491000001C001C001C001C0FFC1C1C381C301C44
:10492000301C301C301C383C1CFC0F9C000000006C
:104930000000000000000000000000000000000077
:1049400000000000000000000FF01C38381C300C84
:104950003FFC3000300038001E0C07FC0000000057
:104960000000000000000000000000000000003C0B
:1049700001FE03800300030003007FFC7FFC0300B3
:104980000300030003000300030003000000000015
:104990000000000000000000000000000000000017
:1049A00000000000000000000FFE1C383818381806
:1049B00018381FF03B8030003FF01FFC300E700EA7
:1049C000381C1FF80000000000000000000000007C
:1049D00038003800380038003BF83E383C1C381CA2
:1049E000381C381C381C381C381C381C00000000CF
:1049F0000000000000000000000000000000018036
:104A000003C003C0000000001FC001C001C001C0FE
:104A100001C001C001C001C001C03FFC0000000096
:104A20000000000000000000000000000000002066
:104A300000700070000000003FF000700070007017
:104A400000700070007000700070007000700070E6
:104A500020E03FC000000000000000000000000057
:104A60001800180018001800183C187018E01B8077
:104A70001F001B8019E018701838181C0000000077
:104A80000000000000000000000000000000000026
:104A90001FC001C001C001C001C001C001C001C0F0
:104AA00001C001C001C001C001C03FFC0000000006
:104AB00000000000000000000000000000000000F6
:104AC00000000000000000006F3C79EE71CE718E96
:104AD000718E718E718E718E718E718E00000000DC
:104AE00000000000000000000000000000000000C6
:104AF00000000000000000003BF83E383C1C381C61
:104B0000381C381C381C381C381C381C00000000AD
:104B10000000000000000000000000000000000095
:104B200000000000000000000FF01C3C381C700E5C
:104B3000700E700E700C381C1E780FE00000000024
:104B40000000000000000000000000000000000065
:104B500000000000000000003BF83E1C3C1C380C2C
:104B6000380C380C380C381C3C783FE038003800E2
:104B700038003800000000000000000000000000C5
:104B800000000000000000000FFC1C1C381C301C42
:104B9000301C301C301C383C1CFC0F9C001C001CC2
:104BA000001C001C000000000000000000000000CD
:104BB000000000000000000019F81F1C1C0C180E5B
:104BC0001800180018001800180018000000000055
:104BD00000000000000000000000000000000000D5
:104BE00000000000000000000FF81C0018001E006C
:104BF0000FC001F80018001818381FF0000000005E
:104C000000000000000000000000000000000000A4
:104C100000000600060006007FFC060006000600F5
:104C20000600060006000700078401FC00000000E3
:104C30000000000000000000000000000000000074
:104C40000000000000000000381C381C381C381C14
:104C5000381C381C381C383C1CFC0FDC00000000E1
:104C60000000000000000000000000000000000044
:104C70000000000000000000700C381C38181C38C0
:104C80000C300E70066007E003C003C00000000097
:104C90000000000000000000000000000000000014
:104CA0000000000000000000600660066186738E50
:104CB00073CC33CC366C366C3C3C3C380000000086
:104CC00000000000000000000000000000000000E4
:104CD0000000000000000000381C1C380E7007E0C7
:104CE00003C003C007E00E701C38381E000000002F
:104CF00000000000000000000000000000000000B4
:104D00000000000000000000700C381C38181C382F
:104D10000C300E70066007E003C003C0038007007C
:104D20000E007C00000000000000000000000000F9
:104D300000000000000000001FF80038007000E0D4
:104D400001C0038007000C001FFC3FFC00000000B6
:104D500000000000000000000000000000000078DB
:104D600001F80380038003800380038003003F0079
:104D70003E000300038003800380038003800380E0
:104D800001C000F8000000000000018001800180E7
:104D9000018001800180018001800180018001800B
:104DA00001800180018001800180018001800180FB
:104DB00001800180000000000000000000001E00D3
:104DC0001F80018001C001C001C001C000C000FC03
:104DD000007C00C001C001C001C001C001C001C011
:104DE00003801F0000000000000000000000000021
:104DF0000000000000000000000000001C003F0652
:104E000071CE60FC00000000000000000000000007
:104E10000000000000000000000000000000000092
:104E20000000000000000000000000000000000082
:104E30000000000000000000000000000000000072
:104E40000000000000000000000000000000000062
:104E50000000000000000000000000000000000052
:104E60000000000000000000000000000000000042
:104E70000000000000000000000000000000000032
:104E80000000000000000000003C00003C00003C6E
:104E900000003C00003C00003C00003C00003C00E6
:104EA000003C00003C00003C00003C00003C0000D6
:104EB0003C00000000000000003C00007E00003CC0
:104EC00000000000000000000000000000000000E2
:104ED00000000000000000000000000000000000D2
:104EE000000000000000000003C3E003C3E003C3B0
:104EF000C003C3C003C3C003C3C003C1C0000000DC
:104F000000000000000000000000000000000000A1
:104F10000000000000000000000000000000000091
:104F20000000000000000000000000000000000081
:104F30000000000000000000000000000000000071
:104F4000000000000000000000000000000001E080
:104F5000E001C0E001C0E001C0E03FFFFE3FFFFE16
:104F600003C1C00381C00381C00381C07FFFFC7FF8
:104F7000FFFC078380070380070380070380070780
:104F800080000000000000000000000000000000A1
:104F90000000000000000000000000000000000011
:104FA0000000000000000700000F00000E0001FFDD
:104FB000F007FFF01F0E001E1E001E1C001E1C002E
:104FC0000FDC0007FC0000FF80003FF00038F80015
:104FD000387800783C0070783071F83FFFE01FFFB0
:104FE0000000E00000E00000E00000000000000021
:104FF00000000000000000000000000000000000B1
:1050000000000000000000000F800F3FE01E7870DD
:105010003C7070707070E07071C03FE3801FC7001B
:10502000000E00001C0000780000F0F001E7FC0317
:10503000CF0E078E0E0F0E0E1E0E0E3C07BC700319
:10504000F800000000000000000000000000000068
:105050000000000000000000000000000000000050
:10506000000000000000000000000001FF0007FF3A
:10507000800F03C00F03C00F03C00F0780079F00FE
:1050800003FE0003F0000FF83C3E7C3C3C1F3C78E4
:105090000FF87807F87C01F03E03F81FFFFC07FECD
:1050A0001F000000000000000000000000000000E1
:1050B00000000000000000000000000000000000F0
:1050C0000000000000000000003E00003C00003C2A
:1050D00000003C00003C00003C00003C00000000E0
:1050E00000000000000000000000000000000000C0
:1050F00000000000000000000000000000000000B0
:10510000000000000000000000000000000000009F
:10511000000000000000000000000000000000008F
:1051200000000000000000800001C0000780000FA8
:1051300000001E00003C0000780000F00000E000CD
:1051400001E00001E00001C00003C00003C0000155
:10515000C00001E00001E00000F00000F000007875
:1051600000003C00001E00000F000007C00001C04E
:10517000000000000000000000000000000000002F
:10518000000000000000000003C00001E00000F08B
:1051900000007C00003E00001E00000F00000780A1
:1051A0000007800003800003C00003C00003C000AC
:1051B00003C0000380000780000780000F00001E6E
:1051C00000003C0000780000F00001E000038000D7
:1051D00000000000000000000000000000000000CF
:1051E0000000000000000000001C00001C0000186F
:1051F000000F18F007DBE0007F0000FF0007DBE096
:105200000E1870001800001C00001C0000000000B8
:10521000000000000000000000000000000000008E
:10522000000000000000000000000000000000007E
:10523000000000000000000000000000000000006E
:10524000000000000000000000000000000000005E
:1052500000000000000000003C00003C00003C009A
:10526000003C00003C00003C003FFFFC3FFFFC0016
:105270003C00003C00003C00003C00003C00000002
:10528000000000000000000000000000000000001E
:10529000000000000000000000000000000000000E
:1052A00000000000000000000000000000000000FE
:1052B00000000000000000000000000000000000EE
:1052C00000000000000000000000000000000000DE
:1052D0000000000000007C00007E00007E00003E18
:1052E00000001E00003C0000F80007E00004000081
:1052F00000000000000000000000000000000000AE
:10530000000000000000000000000000000000009D
:10531000000000000000000000000000000000008D
:1053200000000000000000000003FFE003FFE000B9
:10533000000000000000000000000000000000006D
:10534000000000000000000000000000000000005D
:10535000000000000000000000000000000000004D
:10536000000000000000000000000000000000003D
:10537000000000000000000000000000000000002D
:10538000000000000000000000000000000000001D
:105390000000000000007C0000FE0000FE00007E17
:1053A00000000000000000000000000000000000FD
:1053B00000000000000000000000000000000000ED
:1053C00000000000000000000000780000F0000075
:1053D000E00001E00003C0000380000780000F0030
:1053E000000E00001E00003C0000380000700000AD
:1053F000F00000E00001C00003C0000780000700CB
:10540000000F00001E00001C000000000000000053
:10541000000000000000000000000000000000008C
:10542000000000000000000000000000000001FF7C
:10543000C007FFE00F00F01E00781E003C3C00FC9F
:105440003C07FC3C1FBC3C7C1C3DF03C3FC03C3F4F
:10545000003C1E00381E00780F80F007FFE001FFBF
:1054600080000000000000000000000000000000BC
:10547000000000000000000000000000000000002C
:105480000000000000000000000000000000007E9E
:105490000003FE001FDE000E1E00001E00001E00A6
:1054A000001E00001E00001E00001E00001E000066
:1054B0001E00001E00001E00001E000FFFF80FFF60
:1054C000F8000000000000000000000000000000E4
:1054D00000000000000000000000000000000000CC
:1054E000000000000000000000000000000003FFBA
:1054F000800FFFE00E01F00000F00000F00000F06F
:105500000000F00001E00003C0000F80003E00003A
:105510007C0001F00003C0000F80001FFFFC1FFF94
:10552000FC0000000000000000000000000000007F
:10553000000000000000000000000000000000006B
:1055400000000000000000000000000000000FFF4D
:10555000800FFFE00001E00000F00000F00001E03B
:105560000003C001FF0001FFC00003F0000078004D
:1055700000780000780000780001F00FFFC00FFFF6
:10558000000000000000000000000000000000001B
:10559000000000000000000000000000000000000B
:1055A0000000000000000000000000000000000FEC
:1055B000C0001FC0003FC0007BC000F3C001E3C0BB
:1055C00003C3C00783C00F03C01C03C03803C07FE0
:1055D000FFFE7FFFFE0003C00003C00003C0000306
:1055E000C0000000000000000000000000000000FB
:1055F00000000000000000000000000000000000AB
:1056000000000000000000000000000000000FFF8C
:10561000E00FFFE00F00000F00000F00000F000080
:105620000F00000FFF800FFFE00000F00000780087
:1056300000780000780000F00003E00FFFC00FFECC
:10564000000000000000000000000000000000005A
:10565000000000000000000000000000000000004A
:105660000000000000000000000000000000003FFB
:10567000F001FFF003E0000780000F00001E0000B3
:105680001E1F001FFFE01FC1F81E00781E003C1EF9
:10569000003C1E003C0F00780F80F807FFE001FF80
:1056A000800000000000000000000000000000007A
:1056B00000000000000000000000000000000000EA
:1056C00000000000000000000000000000001FFFBC
:1056D000FC1FFFFC0000780000F00000E00001E08B
:1056E0000003C0000780000F00000F00001E000034
:1056F0003C0000780000F00001F00001E00003C071
:105700000000000000000000000000000000000099
:105710000000000000000000000000000000000089
:10572000000000000000000000000000000003FF77
:10573000E00FE3F00F00781E00781E00780F00F0F5
:1057400007E3E001FF8001FF8007E7E00F00F81E9C
:1057500000781E003C1E007C1F00F80FFFF003FFC6
:10576000C000000000000000000000000000000079
:105770000000000000000000000000000000000029
:10578000000000000000000000000000000003FF17
:10579000800FC7E01E00F01E00783C00783C0078C7
:1057A0003C00381E00780FEFF807FFB800007800C3
:1057B00000780000F00001E0000FC00FFF000FF0C4
:1057C00000000000000000000000000000000000D9
:1057D00000000000000000000000000000000000C9
:1057E00000000000000000000000000000000000B9
:1057F00000000000000000000000007E00007E00AD
:10580000007E000018000000000000000000000002
:105810000000000000003C00007E00007E00003E12
:105820000000000000000000000000000000000078
:105830000000000000000000000000000000000068
:105840000000000000000000000000000000000058
:1058500000000000000000000000007E00007E004C
:10586000007E0000180000000000000000000000A2
:105870000000000000003E00007E00007F00001FCE
:1058800000001E00001E0000FC0007F000040000E5
:105890000000000000000000000000000000000008
:1058A00000000000000000000000000000000000F8
:1058B000000000000000400001E00007C0001F00E1
:1058C000007E0001F80003E0000F80000F8000035D
:1058D000E00000F800003E00000F800003E0000040
:1058E000E0000000000000000000000000000000D8
:1058F00000000000000000000000000000000000A8
:105900000000000000000000000000000000000097
:105910000000000000000000000000000000000087
:105920000000001FFFF80000000000000000001F42
:10593000FFF81FFFF800000000000000000000005A
:105940000000000000000000000000000000000057
:105950000000000000000000000000000000000047
:105960000000000000000000000000000000000037
:105970000000000000000007800003E00000F800C5
:10598000003E00000F800003E00000F80001F0007E
:1059900007C0001F00007C0001F00007C0000300EA
:1059A00000000000000000000000000000000000F7
:1059B00000000000000000000000000000000000E7
:1059C000000000000000000001C00001FE00007F98
:1059D000800007C00001E00000F00000F00001F0CE
:1059E0000003E0007FC0007E000070000070000037
:1059F000700000000000000000F80000F80000F84F
:105A00000000000000000000000000000000000096
:105A10000000000000000000000000000000000086
:105A20000000000000000000001F8000FFF003C025
:105A30007807801C0E000E1C000E3C000F383FC77C
:105A400078FFC770E3C771C3C7F3C387E3C387E3B6
:105A5000878EE3878EE3CF8EE3FFFC71F9F0700051
:105A6000007000003800003C00000F01C007FFC0BC
:105A70000000000000000000000000000000000026
:105A80000000000000000000000000000000007E98
:105A900000007F0000FF0000E78001E78003C3C033
:105AA00003C3C00781E00781E00F00F00F00F81F7B
:105AB000FFF81FFFFC3C003C3C001E78001EF0007D
:105AC0000F000000000000000000000000000000C7
:105AD00000000000000000000000000000000000C6
